:020000022000DC
:1060000000000120756302005D6302005F6302000F
:106010006163020063630200656302000000000028
:1060200000000000000000000000000067630200A4
:1060300069630200000000006B6302006D630200F0
:106040004DDC02006F630200B1E902006F630200E1
:106050006F6302006F630200ADE802006F6302002D
:106060006F6302006F6302006F6302006F630200E0
:106070006F630200E9ED02006F6302006F630200CC
:106080006F630200258A02006F6302006F630200E3
:106090006F6302006F630200451804006F63020023
:1060A0006F6302006F6302006F6302006F630200A0
:1060B0006F6302006F630200000000000000000038
:1060C0006F6302006F6302006F6302006F63020080
:1060D0006F6302006F6302006F6302000000000044
:1060E00000000000000000000000000000000000B0
:1060F00000000000000000000000000000000000A0
:10610000000000000000000000000000000000008F
:10611000000000000000000000000000000000007F
:10612000000000000000000000000000000000006F
:10613000000000000000000000000000000000005F
:10614000000000000000000000000000000000004F
:10615000000000000000000000000000000000003F
:10616000000000000000000000000000000000002F
:10617000000000000000000000000000000000001F
:10618000000000000000000000000000000000000F
:1061900000000000000000000000000000000000FF
:1061A00000000000000000000000000000000000EF
:1061B00000000000000000000000000000000000DF
:1061C00000000000000000000000000000000000CF
:1061D00000000000000000000000000000000000BF
:1061E00000000000000000000000000000000000AF
:1061F000000000000000000000000000000000009F
:10620000354936480A1A02D0072291438D4634494F
:1062100034480A1A06D00722914381F309880222E2
:1062200082F3148830483149314A00F044F831484B
:106230003149324A00F03FF831483249324A00F0E1
:106240003AF832483249334A00F035F83248334997
:10625000334A00F030F833483349344A00F02BF821
:1062600033483449344A00F026F83448344900228F
:1062700000F02CF833483449002200F027F8334866
:106280003349091A082902DB002202604160314AC1
:1062900090471F481F49884205D00268043003B464
:1062A000904703BCF7E700208646EC46002000211B
:1062B000294A9047FEE7884207D0521A05D0037852
:1062C00001300B700131013AF9D17047884202D098
:1062D00002700130FAE770470000012000E0002062
:1062E000000001200000012028CE040064220020CC
:1062F00048240020D0630200D0630200AC5B04009D
:1063000028CE04006422002064220020B85D04002E
:10631000B85D0400B85D0400B85D0400B85D040019
:10632000B85D0400B85D0400B85D040028CE040028
:106330000CD00400482400204824002048240020D9
:10634000323F0020343F0020343F0020343F002003
:10635000345F00209D63020025510300FEE7FEE745
:10636000FEE7FEE7FEE7FEE7FEE7FEE7FEE7FEE705
:1063700000F002B8FFF7FCBF0F484FF00701884359
:1063800085460E4880470E48016841F4700101605F
:10639000BFF34F8FBFF36F8FFFF732BF09480A4932
:1063A0000A4A884207D0521A05D0037801300B7090
:1063B0000131013AF9D1704700000120B9570300BB
:1063C00088ED00E0A45D040050220020642200203B
:1063D00000B583B00190019B1B68184600F03EF8A1
:1063E0000346002B04D105494FF4F6700DF07EFEF4
:1063F0004FF0A043184603B05DF804FBB85D0400FD
:1064000000B585B001900B468DF8033001AB1846FE
:10641000FFF7DEFF0390019A039B02F5E07253F849
:106420002230019A23F44031039B02F5E07243F8D5
:106430002210019A039B02F5E07253F822309DF876
:10644000032012041146019A1943039B02F5E072DE
:1064500043F8221000BF05B05DF804FB84B0019042
:10646000019B5B09029300230393029B002B03D142
:106470004FF0FF33039300BF019B03F01F03019311
:10648000039A019B22FA03F303F00103002B14BFCC
:1064900001230023DBB2184604B0704700B583B077
:1064A0000190019B032B04D801980AF031FB0346AD
:1064B00000E00023184603B05DF804FB00B587B088
:1064C00003460A468DF8073013468DF80630002340
:1064D0008DF81730002304939DF8073018460AF012
:1064E0005FFB0490049B032B61D89DF80630022BC0
:1064F00052D0022B5EDC002B31D0012B5AD1364911
:10650000049A13465B0013440B441B788DF8173034
:106510003149049A13465B0013440B4401331B7842
:10652000002B0ED02D4B2E4A4FF48041184601F01F
:1065300025FD0390039B002B03D1294A9DF80730CA
:1065400013702549049A13465B0013440B4402332D
:106550001978244A049B13440A461A702AE01F4BF8
:10656000184601F063FD1F4A049B134419781A482A
:10657000049A13465B001344034402331B78994288
:1065800017D11549049A13465B0013440B44023398
:106590001B788DF817300CE00F49049A13465B0006
:1065A00013440B4401331B788DF8173002E000BF11
:1065B00000E000BF9DF81730002B09D00A4B1B6884
:1065C000002B05D0084B1B689DF8172010469847F4
:1065D00000BF07B05DF804FB58240020A82200206B
:1065E00064240020682400205424002000B583B0D7
:1065F0000190019B1B7802211846FFF75FFF00BF47
:1066000003B05DF804FB000000B583B00C4B1B78B1
:10661000002B0FD00023019308E0019B022B02D036
:1066200001980AF001FA019B01330193019B032BAE
:10663000F3D901E00AF012FA00BF03B05DF804FBE1
:10664000502400202DE9D04F92B003468DF83F3002
:106650000023119300231093CC4B1B78002B04D004
:10666000CA4A00231370FFF7CFFF9DF83F30172B66
:1066700000F23F8201A252F823F000BFDD66020063
:10668000F5660200F5660200916702002D680200BF
:10669000A96802003D6902005D6902006D6902009F
:1066A00099690200B7690200D5690200F369020026
:1066B000016A0200016A0200016A0200016A020026
:1066C000016A0200956A0200A36A0200B76A02002A
:1066D000CB6A0200E56A0200E56A0200FFF794FF58
:1066E000AB4B184601F0A2FC1190AA4A9DF83F302E
:1066F0001370FFE100200AF04FF90346002B0DD084
:1067000000200AF091F99DF83F30022B02D14FF49E
:10671000E16301E04FF47A6310930BE000200AF08C
:1067200069F99DF83F30022B01D1C82301E04FF4F5
:10673000C8731093974A9DF83F301370944C109B88
:106740000022009301924FF000024FF00003DDE9B8
:1067500000673946CB03314643EA51433146CA0309
:1067600012F57A71029143F1000303934FF4FA6238
:106770004FF00003DDE902011BF0ADFB02460B46C2
:10678000134600221946204601F0F8FB1190B1E1B2
:1067900000200AF001F90346002B0DD000200AF07A
:1067A00043F99DF83F30032B02D14FF4487301E0C9
:1067B0004FF47A6310930BE000200AF01BF99DF868
:1067C0003F30032B01D1C82301E04FF4C87310936D
:1067D000704A9DF83F3013706D4C109B002204935B
:1067E00005924FF000024FF00003DDE904673946DF
:1067F000CB03314643EA51433146CA0312F57A715D
:10680000069143F1000307934FF4FA624FF000033F
:10681000DDE906011BF05FFB02460B461346002232
:106820001946204601F0AAFB119063E100200AF00E
:10683000B3F80346002B06D000200AF0F5F84FF419
:106840007A63109305E000200AF0D4F84FF4C8737F
:106850001093504A9DF83F3013704D4C109B00220E
:106860009A4693464FF000024FF000034FEACB33B5
:1068700043EA5A434FEACA3212F57A71089143F15A
:10688000000309934FF4FA624FF00003DDE90801B9
:106890001BF021FB02460B461346002219462046F8
:1068A00001F06CFB119025E100200AF075F8034619
:1068B000002B0CD000200AF0B7F89DF83F30052BD4
:1068C00001D1C82301E04FF47A6310930BE000205C
:1068D0000AF090F89DF83F30052B01D1C82301E064
:1068E0004FF4C87310932B4A9DF83F301370284C17
:1068F000109B0022984691464FF000024FF0000393
:106900004FEAC93343EA58434FEAC83212F57A7165
:106910000A9143F100030B934FF4FA624FF0000326
:10692000DDE90A011BF0D7FA02460B4613460022A6
:106930001946204601F022FB1190DBE000200AF00E
:10694000B3F8144A9DF83F301370114B002240F207
:106950006661184601F012FB1190CBE000200AF0AE
:1069600049F80C4A9DF83F301370C3E0074B0122F1
:106970001A7001200AF098F8054B002240F2666177
:10698000184601F0FBFA1190B4E000BF4924002042
:106990006822002048240020594B01221A7001204F
:1069A0000AF082F8574B00224FF40051184601F0CC
:1069B000E5FA11909EE0524B01221A7001200AF074
:1069C00073F8504B002240F26661184601F0D6FA87
:1069D00011908FE04A4B01221A7001200AF064F8EE
:1069E000484B00224FF40051184601F0C7FA1190AD
:1069F00080E00AF046F8444A9DF83F30137079E091
:106A0000424B184601F012FB11909DF83F30C3F144
:106A100011031093109B002B35D0119B002B32D10A
:106A2000109B012B28D9394C109B9BB21A46C823C6
:106A300002FB03F3DA171E4617464FF000024FF031
:106A40000003FB0343EA5643F20312F57A710C91FB
:106A500043F100030D934FF4FA624FF00003DDE9B8
:106A60000C011BF038FA02460B4613460022194669
:106A7000204601F083FA1190022009F0BBFF244B5D
:106A800001221A7036E0022009F0CEFF204B0022CE
:106A90001A702FE0FFF7B8FD1B4A9DF83F301370C6
:106AA00028E0FFF7B1FD002009F0A4FF164A9DF889
:106AB0003F3013701EE0FFF7A7FD012009F09AFF99
:106AC000114A9DF83F30137014E0FFF79DFD002040
:106AD00009F090FF012009F08DFF0B4A9DF83F302F
:106AE000137007E009F0CDFF074A9DF83F3013709F
:106AF00000E000BF119B184612B0BDE8D08F00BF68
:106B000049240020682200204824002088220020F8
:106B10005024002000B583B00190074B1B6803F0A0
:106B20000103002B04D0054B1B781846FFF78AFDA4
:106B300000BF03B05DF804FB4C2400204824002073
:106B400000B583B00190022009F0AEFF00BF03B092
:106B50005DF804FB00B585B003468DF807300023CF
:106B60000393084B1B6803F00103002B05D09DF82D
:106B700007301846FFF766FD0390039B184605B0E3
:106B80005DF804FB4C24002000B585B00190009115
:106B9000002303932A4A019B13602A4A009B136037
:106BA000019B03F00203002B2AD00023029308E08C
:106BB00001220121029800F055F80390029B013355
:106BC0000293029B032B02D8039B002BF0D0039B64
:106BD000002B06D140F2333204211B4800F0A4FC04
:106BE0000390039B002B02D100F026FD0390039B32
:106BF000002B05D1154A0021154801F085F90390B5
:106C0000019B03F00103002B14D0012009F0FEFFCB
:106C1000039B002B05D10F4A00210F4801F074F9A6
:106C20000390039B002B05D10C4A01210C4801F075
:106C30006BF90390039B184605B05DF804FB00BF99
:106C40004C24002054240020F45D0400ED65020073
:106C5000F05D0400156B0200E85D0400416B02006A
:106C6000EC5D040084B001900B468DF803301346B0
:106C70008DF8023000230393019B032B3CD89DF831
:106C80000230012B0BD19DF80330012B04D1019B65
:106C9000DBB20E33DBB200E000238DF802309DF84A
:106CA0000330022B0FD0022B23DC002B16D0012B3C
:106CB0001FD11449019A13465B0013440B449DF8FD
:106CC00002201A701AE00F49019A13465B00134420
:106CD0000B4401339DF802201A700FE00949019A14
:106CE00013465B0013440B4402339DF802201A70D4
:106CF00004E00723039301E007230393039B184653
:106D000004B070475824002000B585B001900B46B0
:106D10008DF80330019B032B14D89DF80330002B12
:106D200001D0032300E000238DF80F30019809F013
:106D300057FF02469DF80F3019461046FFF760FBDB
:106D4000002300E00623184605B05DF804FB00B5FB
:106D500083B0019001210198FFF7D6FF0346184642
:106D600003B05DF804FB00B583B0012200210020D0
:106D7000FFF778FF0190019B002B04D0019B072BAC
:106D800001D0019B1CE0072202210120FFF76AFFCE
:106D90000190019B002B04D0019B072B01D0019B8C
:106DA0000EE0042202210020FFF75CFF0190019B0E
:106DB000002B04D0019B072B01D0019B00E0002396
:106DC000184603B05DF804FB00B583B00122022130
:106DD0000020FFF747FF0190019B002B04D0019B8F
:106DE000072B01D0019B1CE0072202210120FFF7A5
:106DF00039FF0190019B002B04D0019B072B01D090
:106E0000019B0EE00A2200210020FFF72BFF0190DA
:106E1000019B002B04D0019B072B01D0019B00E0BC
:106E20000023184603B05DF804FB00B583B0019061
:106E30000120FFF733FB0346002B03D0019B022206
:106E40001A700CE00020FFF729FB0346002B03D04B
:106E5000019B0B221A7002E0019B00221A7000BFF6
:106E600003B05DF804FB00B583B00020FFF76FFFAF
:106E70000190019B002B04D0019B062B01D0019BAC
:106E80000CE00120FFF763FF0190019B002B04D071
:106E9000019B062B01D0019B00E00023184603B0A4
:106EA0005DF804FB00B585B001900091019B1B8843
:106EB000102B02D0112B18D02FE01A4B1B68002B7F
:106EC0000DD1FFF750FF0390039B002B07D0164B0B
:106ED0001B68002B03D0144B1B6803989847114B79
:106EE0001B6801330F4A136017E00E4B1B68013B10
:106EF0000C4A13600B4B1B68002B0DD1FFF764FF8E
:106F00000390039B002B07D0074B1B68002B03D07B
:106F1000054B1B680398984700BF00BF05B05DF89C
:106F200004FB00BF702400206C24002000B585B055
:106F300001900091002303930A4A019B1360009B78
:106F4000002B02D00098FFF770FF074B1B68002B47
:106F500002D1FFF739FF0390039B184605B05DF897
:106F600004FB00BF6C2400207024002000B583B017
:106F7000002100200CF092FF0190019B184603B005
:106F80005DF804FB00B583B00DF002F80190019BA1
:106F9000184603B05DF804FB84B00190019B002B00
:106FA0000BD0019B002B13DC019B13F1380F07D092
:106FB000019B13F1360F07D00AE0002303930BE087
:106FC00048F21153039307E048F21453039303E08C
:106FD00048F21653039300BF039B184604B0704752
:106FE00000B585B00390029101920199029806F0D4
:106FF00085FB0023184605B05DF804FB00B589B099
:1070000003900291039B04330793002006F09EFA3D
:107010000690069B002B01D0069B10E007980BF012
:10702000B3FF0023009300230022074907980CF0C8
:107030002AFA05900598FFF7AFFF0690069B1846C1
:1070400009B05DF804FB00BFE16F020000B585B038
:107050000190019B0433039303980BF0A6FF06F005
:10706000BBFA0023184605B05DF804FB00B587B0F5
:107070000390029101928DF80330039B0433059332
:10708000019A029905980CF0E7FA04900498FFF72A
:1070900083FF0346184607B05DF804FB00B587B0D0
:1070A0000390029101920093039B04330593009A8D
:1070B000019905980CF04CF904900498FFF76CFFC7
:1070C0000346184607B05DF804FB000084B0034691
:1070D0008DF807309DF807305B08DBB21A460D4B80
:1070E0009B5C8DF80F309DF8073003F00103002BF7
:1070F00004D09DF80F301B09DBB204E09DF80F307F
:1071000003F00F03DBB28DF80E309DF80E301846F9
:1071100004B070478824002084B003460A468DF8E6
:10712000073013468DF806309DF8073003F0010351
:10713000002B01D00F2300E0F0238DF80F309DF8D5
:10714000073003F00103002B04D09DF806301B012B
:10715000DBB201E09DF806308DF80E309DF8073067
:107160005B08DBB21A46114B9A5C9DF807305B084E
:10717000DBB219469DF80F301340DAB20B4B5A546C
:107180009DF807305B08DBB21A46084B9A5C9DF805
:1071900007305B08DBB219469DF80E301343DAB2B4
:1071A000024B5A5400BF04B0704700BF882400202F
:1071B00000B585B003468DF807300023039310E037
:1071C0000F4B1A68039BDB0013440293029B1B784E
:1071D0009DF807209A4201D1029B0DE0039B0133E9
:1071E0000393084B1B781A46039B9342E8DB06493E
:1071F00088200CF07BFF0023184605B05DF804FBE7
:107200007424002078240020205E040000B585B09E
:1072100003460A468DF8073013468DF806309DF870
:1072200007301846FFF7C4FF0390039B002B0BD0D9
:10723000039B5B68002B07D0039B5B689DF80610DF
:107240009DF807201046984700BF05B05DF804FB85
:107250002DE9F04F87B003460A468DF80F301346EC
:107260008DF80E309DF80F301846FFF72FFF0346BC
:10727000042B00F2C28001A252F823F091720200A6
:10728000057302002173020051730200677302004C
:107290009DF80E30002B00F0AD809DF80F300121DD
:1072A0001846FFF739FF00238DF817300DF117034B
:1072B000184600F08BFF9DF80F104FF001024FF0C1
:1072C0000003A1F12004C1F1200003FA01F702FA42
:1072D00004F4274322FA00F0074302FA01F6494B6F
:1072E000D3E9002346EA020100913B430193454B59
:1072F000DDE90012C3E900129DF81730184600F0CE
:107300007BFF77E09DF80E30002B01D0022200E0D9
:1073100000229DF80F3011461846FFF7FDFE6CE085
:107320009DF80E30002B0CD09DF80F30032118462D
:10733000FFF7F2FE9DF80F3001211846FFF766FFB8
:107340005BE09DF80F3001211846FFF7E5FE54E0A1
:107350009DF80E30002B4FD19DF80F3004211846B8
:10736000FFF7DAFE48E09DF80E30002B06D09DF8BE
:107370000F3003211846FFF7CFFE3EE09DF80F3097
:1073800000211846FFF7C8FE9DF80F30002118466F
:10739000FFF73CFF00238DF816300DF11603184659
:1073A00000F014FF9DF80F104FF001024FF00003A2
:1073B000A1F12006C1F1200003FA01F502FA06F658
:1073C000354322FA00F0054302FA01F46FEA04089B
:1073D0006FEA05090B4BD3E9002308EA020A09EA20
:1073E000030B084BC3E900AB9DF81630184600F0BC
:1073F00003FF02E000BF00E000BF00BF07B0BDE830
:10740000F08F00BF8024002000B583B00648074BF2
:107410001B685B080022194600F0B0FD019000BF18
:1074200003B05DF804FB00BFC82200207C240020CC
:1074300000B587B001900023059328E01C4B1A6823
:10744000059BDB0013440493049B1B78184607F04C
:107450007DF903468DF80F30049B5B78012B0CBF40
:1074600001230023DBB21A469DF80F309A420CBF6D
:10747000012300238DF80E30049B1B789DF80E200D
:1074800011461846FFF7E4FE059B01330593094BAF
:107490001B781A46059B9342D0DB074BD3E90023A8
:1074A000134301D0FFF7B0FF00BF07B05DF804FB46
:1074B00074240020782400208024002000B585B0AA
:1074C00001900B468DF80330019BDBB21846FFF7A5
:1074D0006FFE0390039B1B78184607F037F90346AD
:1074E0008DF80B30039B5B78012B0CBF012300232D
:1074F000DBB21A469DF80B309A420CBF01230023E1
:107500008DF80A309DF80A30002B06D0054BD3E9E0
:107510000023134301D1FFF777FF00BF05B05DF8EB
:1075200004FB00BF8024002000B58BB003900B4605
:1075300001928DF80B30019B092B01D8072367E0DE
:1075400006F0F8FF034683F00103DBB2002B09D0FD
:1075500006F08CFF0990099B0893089B002B01D033
:10756000089B55E02C4A039B13602C4A9DF80B3076
:1075700013702B4A019B13601022002129481AF036
:10758000CEFD29494FF000024FF00003C1E900236E
:1075900031E09DF80B30DB00039A1344079303237B
:1075A0008DF8143000238DF815309DF816306FF3E8
:1075B00000038DF816309DF816306FF341038DF8F7
:1075C00016309DF816306FF382038DF81630079B46
:1075D0009B788DF81530079B1B78184605AB134A2E
:1075E000194606F0B3FF0990099B0693069B002BF2
:1075F00001D0069B0CE09DF80B305A1E8DF80B2035
:10760000002BC6D10A4A00210A4800F07DFC03463F
:1076100018460BB05DF804FB742400207824002089
:107620007C2400208824002080240020BD740200D7
:1076300031740200885E040000B583B0114B1B68F2
:10764000002B04D1104940F235100CF04FFD0023FF
:1076500001930CE00B4B1A68019BDB0013441B7871
:107660000121184606F0EEFF019B01330193074B01
:107670001B781A46019B9342ECD30023184603B0B3
:107680005DF804FB74240020205E040078240020B0
:1076900086B003900291019201238DF817309DF876
:1076A0001730204A039B13601E4A029B53601D4AF9
:1076B000019B9360039B44F20102934212D0039B0F
:1076C00044F20202934220D1019B164AD360154B2B
:1076D000DB681B68134A9361124BDB685B68114AD5
:1076E000D36112E0019B0F4A13610E4B1B699B682B
:1076F0000C4A53610B4B1B691B680A4A9361094B87
:107700001B695B68074AD36100BF72B600BF00BF48
:107710009DF81730DBB2002BFAD162B600BF00BF74
:1077200006B070479824002000B583B00290009105
:10773000019244F2010071466A4600F003F803B07A
:1077400000BD00BF30B58BB007900691059272B6B0
:1077500000BF0AF07DFA00BF0AF038F80346002B9C
:10776000FAD1079B44F2020293422FD0079B44F2C6
:107770000202934269D8079B44F20102934237D038
:10778000079B44F2010293425FD8079B012B05D06F
:10779000079B41F2010293420CD056E0394A3A4B22
:1077A000D31ADB081B0443F001033849184609F0DB
:1077B00083FF57E0334A344BD31ADB081B0443F0F2
:1077C00001033349184609F077FF4BE0059B099305
:1077D0002C4A2D4BD31ADB081B0443F00100099BF4
:1077E0005B681A46099B1B682A4909F084FF39E047
:1077F000059B0893234A244BD31ADB081B0443F050
:107800000104089B9D68089B9B68184605F046FC90
:1078100003461846089B5B681946089B1B68069A36
:1078200002920193009103462A461B49204609F023
:10783000A4FF144A144BD31ADB081B0443F00103C2
:107840001649184609F038FF0CE00E4A0E4BD31AC1
:10785000DB081B0443F00103069A1149184609F09E
:1078600039FF00BF0F4B1B6803F00103002B00D052
:1078700000BE059A06990798FFF70AFF00BF0BB0F4
:1078800030BD00BFCC5C04009C5C04008C5E040036
:10789000AC5E0400D05E0400EC5E0400145F0400E3
:1078A000285F0400F0ED00E02DE9F04383B01448B8
:1078B00001F09DF8034600221C461546114BD3E902
:1078C000002314EB020845EB0309CDE900890E4BB8
:1078D000D3E90023DDE90001904271EB030307D2F5
:1078E000DDE9002312F1807643F10007CDE900675E
:1078F000DDE900231046194603B0BDE8F08300BF60
:10790000E8220020C0240020C824002088B0019074
:107910000091019B0793009B0693079BD3E90223E9
:10792000CDE90423069BD3E90223CDE90223DDE957
:107930000423DDE90201904271EB03032CBF012314
:107940000023DBB2184608B070470000F0B585B0E0
:107950000190019B5B69002B03D14349A5200CF0EA
:10796000C5FB00238DF80F30404B1B78002B75D0E2
:10797000019B002B72D0FFF797FF019BD3E90223F5
:10798000904271EB030358D300238DF80D300DF1B5
:107990000D03184600F01AFC019B1B69002B06D151
:1079A00001994FF0FF324FF0FF33C1E902239DF8F8
:1079B0000D30184600F020FC019B5B69019A92692A
:1079C0001046984700238DF80C3003AB184600F0A2
:1079D000FDFB019B1B69002B1AD0019BD3E90223FD
:1079E000B3F1FF3F08BFB2F1FF3F11D0019BD3E9D4
:1079F00002230199096900200C460546161943EB3C
:107A00000507019BC3E9026701238DF80E3002E0F0
:107A100000238DF80E309DF80C30184600F0ECFB7A
:107A20009DF80E30002B19D0019B1946104805F027
:107A30008FFA01238DF80F3010E0019BD3E9022368
:107A4000B3F1FF3F08BFB2F1FF3F07D0019B1946DA
:107A5000074805F07DFA01238DF80F309DF80F30AF
:107A6000184605B0F0BD00BF4C5F0400BC240020E8
:107A7000B85F040030B58BB0019000910D230993DD
:107A8000009B00221A70019BD3E90223CDE9062353
:107A9000FFF70AFFDDE90623141A63EB0105CDE9C0
:107AA0000445DDE90423012A73F1000318DB049B7C
:107AB000B3F5350F05D300F00BFB0246144B13440E
:107AC00000E0069B03934FF49603039A00211148AC
:107AD00000F080FE0990099B002B05D1012314E0E2
:107AE00000210C4800F04EFF099B0D2B07D1019897
:107AF000FFF72CFF03461A46009B1A7004E0064964
:107B00004FF486700CF0F2FA002318460BB030BD2B
:107B1000FFFFB400E82200204C5F040000B583B0F2
:107B2000044805F04FFA0190019B184603B05DF838
:107B300004FB00BFB85F040000B583B0044805F043
:107B400063FA0190019B184603B05DF804FB00BF87
:107B5000B85F040000B583B0FFF7E0FF0190019B20
:107B6000002B06D001994FF0FF324FF0FF33C1E9EF
:107B70000223019B002BEFD100BF00BF03B05DF8D3
:107B800004FB0000054BD3E9002312F1807043F1A0
:107B90000001024BC3E9000100BF7047C024002070
:107BA00010B582B00190124B1B68002B1DD00198BC
:107BB00000F01DFF04460021019800F009FF034674
:107BC0001946204600F078FA0346B3F5960F04D321
:107BD000084940F241100CF089FA054B1B68184621
:107BE000FFF7B4FE024B00221A6000BF02B010BDC6
:107BF000B82400204C5F040000B583B00190FFF76B
:107C000053FE02460B460349C1E9002300BF03B0FF
:107C10005DF804FBC824002000B587B00190FFF791
:107C20008BFF049000238DF81730049B002B58D055
:107C3000049BD3E90223B3F1FF3F08BFB2F1FF3F3A
:107C400002D1FFF76BFF54E02E4B1B68002B03D1D2
:107C500001238DF817301DE0049BD3E90201294B65
:107C60001B68D3E90223904271EB030312D2012374
:107C70008DF81730234B1B68D3E90223B3F1FF3F84
:107C800008BFB2F1FF3F05D01E4B1B6819461E48C6
:107C900005F05EF99DF81730002B2BD0FFF73EFF63
:107CA00004900DF10F0319460498FFF7E3FE034615
:107CB000002B12D0134B1B68002B02D1019800F04F
:107CC00095FC104A049B13609DF80F3083F001036C
:107CD000DBB2002BA3D000BF0FE00A4B00221A60DA
:107CE0009DE7084B1B68002B06D1019800F094FC1F
:107CF00002E094E700BF00E000BF00BF07B05DF8FE
:107D000004FB00BFB8240020B85F040000B587B0B2
:107D100001902B4A03AB1946104602F01EFF049057
:107D200045E0049B1B78022B2BD0022B2FDC002B71
:107D300002D0012B11D02AE0049B5B68D3E9022317
:107D4000B3F1FF3F08BFB2F1FF3F22D0049B5B6855
:107D500019461C4805F0FCF81BE0049B5A681A4BB6
:107D60001B689A4203D1184B00221A6012E0049B50
:107D70005B681946134805F05BF903468DF8173028
:107D800008E0FFF7E7FE114B01221A7002E000BF86
:107D900000E000BF0A4A03AB1946104602F0F6FEA7
:107DA000074A03AB1946104602F0D7FE0490049B25
:107DB000002BB6D100BF00BF07B05DF804FB00BFC9
:107DC00028250020B85F0400B8240020BC2400202F
:107DD00000B583B00190019800F0C7FD0346002B69
:107DE00001D0FFF7CFFE0021019800F0DCFD034633
:107DF000002B02D00198FFF7D3FE0121019800F07B
:107E0000D2FD0346002B02D00198FFF7F5FE019842
:107E1000FFF77CFF0198FFF7FFFE00BF03B05DF89E
:107E200004FB000008B5024800F0EEFD00BF08BDED
:107E3000E822002000B585B0034600918DF8073098
:107E4000114A02AB1946104602F05AFE0390039BFA
:107E5000002B13D0039B9DF807201A70039B009AF8
:107E60005A60094A02AB1946104602F062FE034608
:107E7000002B01D0FFF7D6FF002300E004231846B3
:107E800005B05DF804FB00BF2825002000B583B0D5
:107E9000164B1B680093164808235822154902F018
:107EA000E8FD0190019B002B01D0019B19E06B467E
:107EB000114A1946114800F01BFB0190019B002B51
:107EC00001D0019B0DE001210C4800F03DFD012394
:107ED0000B4A0121094800F0B5FB0A4B01221A7038
:107EE000019B184603B05DF804FB00BFB45F0400BB
:107EF00028250020D0240020D17D0200E822002087
:107F0000FFFF7F00BC24002000B587B003900B4624
:107F100001928DF80B30039B002B04D1164940F2DF
:107F20005A200CF0E3F8019B002B04D1124940F2D7
:107F30005B200CF0DBF8019B002B01D1072317E03D
:107F4000039B1B68059305994FF0FF324FF0FF33F9
:107F5000C1E90223059B019A5A619DF80B30012B60
:107F60000CBF01230023DBB21A46059B1A610023D4
:107F7000184607B05DF804FB4C5F0400F0B589B00B
:107F8000039002910192039B002B04D1264940F2F9
:107F90006B200CF0ABF8039B069300238DF8173091
:107FA0000DF11703184600F011F9069BD3E90223DF
:107FB000B3F1FF3F08BFB2F1FF3F11D1FFF774FCEF
:107FC00002460B46029900200C460546161943EB63
:107FD0000507069BC3E9026701238DF81F3002E005
:107FE00000238DF81F309DF81730184600F004F973
:107FF0009DF81F3083F00103DBB2002B01D000237A
:108000000EE0069B019A9A61069B1B69002B02D029
:10801000069B029A1A6106990020FFF70BFF0346A0
:10802000184609B0F0BD00BF4C5F040000B587B032
:108030000190019B002B04D11E4940F293200CF0CB
:1080400055F8019B049300238DF80F300DF10F03B9
:10805000184600F0BBF8049BD3E90223B3F1FF3FBD
:1080600008BFB2F1FF3F03D100238DF8173009E0BC
:1080700004994FF0FF324FF0FF33C1E9022301238F
:108080008DF817309DF80F30184600F0B5F89DF8C0
:10809000173083F00103DBB2002B01D0002304E092
:1080A00004990120FFF7C6FE0346184607B05DF8A5
:1080B00004FB00BF4C5F040082B001900091019A64
:1080C000009BD31A23F07F43184602B0704700008C
:1080D00008B5034800F08BFC0346184608BD00BFF6
:1080E000E822002082B0EFF310830093009B0193FD
:1080F00072B600BF019B184602B0704762B600BF5F
:1081000000BF704700B585B00190FFF7EBFF03900B
:10811000164B9B68002B1BD1144B01229A60144B09
:10812000D3F88020134B1340104A1360104B114AB0
:10813000C3F880200E4BD3F884300C4A53600C4BAC
:108140004FF0FF32C3F88420019B00221A7002E036
:10815000019B01221A70039B002B01D1FFF7CEFF78
:108160000023184605B05DF804FB00BF3C25002045
:1081700000E100E0FC06FFBD00B585B003468DF8C8
:108180000730104B9B68002B16D09DF80730002B52
:1081900012D1FFF7A7FF03900B4A0A4B1B6813602D
:1081A000094A084B5B685360064B00229A60039BA8
:1081B000002B01D1FFF7A2FF0023184605B05DF8A0
:1081C00004FB00BF3C25002000E100E000B583B0C7
:1081D000019000F02BF80346012B03D00549432002
:1081E0000BF084FF0198FFF78DFF00BF03B05DF82F
:1081F00004FB00BFC45F040000B583B003468DF8E4
:10820000073000F013F80346012B03D00649512034
:108210000BF06CFF9DF807301846FFF7ADFF00BF6D
:1082200003B05DF804FB00BFC45F040084B0EFF34B
:1082300005830193019BC3F308030393039B002B66
:108240000DD1EFF314830093009B0293029B03F084
:108250000103002B0CBF01230023DBB200E001234C
:10826000184604B07047000082B003468DF807300E
:108270009DF90730002B0CDB9DF8073003F01F023F
:1082800005499DF907305B09012000FA02F241F827
:10829000232000BF02B0704700E100E082B0034637
:1082A0008DF807309DF90730002B0DDB9DF8073066
:1082B00003F01F0206499DF907305B09012000FA0F
:1082C00002F2403341F8232000BF02B0704700BFE4
:1082D00000E100E082B0034600918DF807309DF97F
:1082E0000730002B0ADB009BDAB20C499DF90730FE
:1082F0005201D2B20B4483F800230BE0009BDAB2A8
:1083000007499DF8073003F00F03043B5201D2B236
:108310000B441A7600BF02B0704700BF00E100E0D6
:1083200000ED00E000B583B003460A468DF8073043
:1083300013468DF806309DF80630012B03D99DF8C1
:108340000630032B0BD99DF80630042B03D99DF87A
:108350000630072B03D908496B200BF0C7FE9DF8A8
:1083600006209DF9073011461846FFF7B3FF00BFFE
:1083700003B05DF804FB00BF3060040000B583B0BB
:1083800003468DF807309DF907301846FFF76CFF5C
:1083900000BF03B05DF804FB00B585B00190019B00
:1083A000002B0AD0074B43F001030393019B9B0171
:1083B0000293039B0298984700E000BF05B05DF868
:1083C00004FB00BF4061040084B00390029101925D
:1083D000039B029A02F5A872019943F8221000BF8C
:1083E00004B0704782B001900091019B009A02F5A1
:1083F000A87253F82230184602B0704782B001903C
:108400000091019B009AC3F8042300BF02B070479B
:1084100082B001900091019B009AC3F8082300BF2D
:1084200002B0704782B001900B46ADF80230BDF843
:108430000230019A13441B68184602B0704784B09A
:1084400001900B46ADF80230BDF80230019A13449A
:1084500000221A60BDF80230019A13441B6803938E
:10846000039B00BF04B0704782B00190019BD3F81A
:108470000435184602B0704700B583B001900091F2
:10848000009BB3F5805F04D306494FF4BE700BF038
:108490002DFE019B009AC3F8082500BF03B05DF8CC
:1084A00004FB00BF6060040082B001900B468DF8B1
:1084B00003309DF80320019B13441A4601231360E7
:1084C00000BF02B0704782B001900091019B009AFA
:1084D000C3F8442300BF02B0704782B001900091FE
:1084E000019B009AC3F8482300BF02B07047000008
:1084F00000B587B0039002910192039B002B03D13A
:10850000334955200BF0F2FD029B002B03D130497B
:1085100056200BF0EBFD019B002B03D12C4957207B
:108520000BF0E4FD039B5B7919462A4A019B42F854
:108530002130039B5B79284ADB0013441B79002B15
:108540000ED008230593254A254BD31ADB081B04BC
:1085500043F002032349184609F0AEF8059B32E0C8
:10856000039B1A68029B1B8819461046FFF784FF7D
:10857000039B93F90420029B9B7819461046FFF752
:10858000D1FE039B93F904301846FFF7F7FE039BD7
:108590005B79114ADB00134401221A71039B5B795A
:1085A00019460D4A039B42F83130002305930B4ACC
:1085B0000B4BD31ADB081B0443F003030A4918468C
:1085C00009F07AF8059B184607B05DF804FB00BF78
:1085D00090600400482500204C250020DC5C04004D
:1085E0009C5C0400F46004001861040000B583B0D2
:1085F0000190019B002B03D1064987200BF076FDEB
:10860000019B1B6800211846FFF74EFF00BF03B017
:108610005DF804FB9060040000B583B00190019BFD
:10862000002B03D106498D200BF060FD019B1B68D8
:1086300004211846FFF738FF00BF03B05DF804FBC4
:108640009060040000B587B00390029101928DF80C
:108650000330039B002B03D1214996200BF046FDEC
:108660004FF48032029B02FA03F30593029B5033CE
:108670009BB29B00ADF81230019B23F07F43019326
:10868000039B1B6805991846FFF7C2FE039B1B68F6
:1086900005991846FFF721FF039B1B68BDF81220C0
:1086A00011461846FFF7CBFE039B1B68019A0299FF
:1086B0001846FFF789FE039B1B6805991846FFF7CC
:1086C00002FF9DF80330002B05D0039B1B68059922
:1086D0001846FFF793FE00BF07B05DF804FB00BF2C
:1086E0009060040000B585B00390029113468DF8A8
:1086F0000730039B002B03D10B49A9200BF0F6FC9C
:10870000039B1B6802991846FFF7DDFE9DF80730B2
:10871000002B05D0039B1B6802991846FFF76EFEDD
:1087200000BF05B05DF804FB9060040000B583B0A5
:1087300001900091019B002B03D10A49B3200BF05B
:10874000D5FC019B1B6800991846FFF7C6FE019BEC
:108750001B6800991846FFF75BFE00BF03B05DF889
:1087600004FB00BF9060040000B583B001900B468D
:10877000ADF80230019B002B03D10F49BA200BF05A
:10878000B5FC019B1B68BDF8022011461846FFF797
:1087900049FE0346002B09D0019B1B68BDF802204F
:1087A00011461846FFF74BFE012300E00023184650
:1087B00003B05DF804FB00BF9060040082B001903C
:1087C0000091019A009BD31A23F07F43184602B010
:1087D0007047000000B58BB00390029101920093A6
:1087E000039B002B03D15749CD200BF07FFC4FF4A6
:1087F0008032029B02FA03F30993029B50339BB22F
:108800009B00ADF82230019B23F07F43019309992F
:108810000398FFF78BFF039B1B681846FFF724FEA6
:108820000790039B1B6802991846FFF7DBFD069033
:10883000039B1B68079A02991846FFF7C5FD039B27
:108840001B68BDF8222011461846FFF7F8FD07996E
:108850000698FFF7B3FF0346012B0AD11020FFF75C
:108860009BFD039B1B68BDF8222011461846FFF7AD
:10887000E6FD039B1B681846FFF7F6FD0790079976
:108880000198FFF79BFF0590039B1B680999184609
:10889000FFF719FE059B012B15D1039B1868019B5F
:1088A00001331A460299FFF78FFD1020FFF774FD80
:1088B000039B1B681846FFF7D7FD0246079B9342B0
:1088C00035D00D2339E0039B1B68019A02991846A5
:1088D000FFF77AFD039B1B681846FFF7C5FD07905D
:1088E000019B013B07991846FFF768FF0590009B25
:1088F000C3F1FF1303F57F43059A9A4201D90D2373
:108900001BE0059B002B12D1039B1868019B0133D0
:108910001A460299FFF758FD039B1B681846FFF79C
:10892000A3FD0246079B934201D00D2305E00122DF
:1089300009990398FFF7D6FE002318460BB05DF89F
:1089400004FB00BF9060040000B583B001900B46AB
:108950008DF803309DF803301A4602210198FFF785
:10896000C1FE00BF03B05DF804FB00B583B0019009
:108970004FF482710198FFF7F7FE0346184603B0E3
:108980005DF804FB00B583B0019000914FF4803294
:10899000009B02FA03F319460198FFF7C7FE00BFD8
:1089A00003B05DF804FB00B585B001900091009B19
:1089B00050339BB29B00ADF80E30BDF80E30194617
:1089C0000198FFF7D1FE0346184605B05DF804FB99
:1089D00000B583B001900091019B1B680099184677
:1089E000FFF700FD0346184603B05DF804FB00B531
:1089F00083B00190019B1B681846FFF735FD0346C5
:108A0000184603B05DF804FB00B583B00190019BEC
:108A100093F904301846FFF741FC00BF03B05DF83E
:108A200004FB000008B5044B1B68044A126810469A
:108A3000984700BF08BD00BF482500204C250020F6
:108A400082B00190019B03F00303002B0CBF0123B4
:108A50000023DBB2184602B07047000000B585B0B5
:108A60000190002303930EE00B4A039B52F823303E
:108A7000002B05D0084A039B52F8233001989847F1
:108A8000039B01330393039B032BEDD900BF00BF6E
:108A900005B05DF804FB00BF6425002082B00190A2
:108AA0000091019B1B78013B052B61D801A252F874
:108AB00023F000BFCD8A0200D58A0200FB8A0200A3
:108AC0002D8B02004D8B0200698B0200009B00225F
:108AD0001A704EE0009B01221A70019B1A89009BBC
:108AE0009A81019B9A88009BDA81019BDA68009B3E
:108AF0009A60009B00221A743BE0009B02221A70CD
:108B0000019B1A89009B9A81019B9A88009BDA81BC
:108B1000019BDA68009B9A60019B9B7D062B0CBF32
:108B200001230023DAB2009B1A7422E0009B032287
:108B30001A70019BDA88009B9A81019B1A89009B1D
:108B4000DA81019BDA68009B9A6012E0009B0422A4
:108B50001A70019BDA88009B9A81009B0022DA81BF
:108B6000009B00229A6004E0009B05221A7000E03E
:108B700000BF00BF02B0704784B001900091019B1C
:108B80000393039A009B9A4206D2039B1B68B3F19E
:108B9000FF3F01D0012300E0002303F00103DBB21B
:108BA000184604B0704782B00190019B5B88033384
:108BB0009B00019A1344184602B0704700B583B079
:108BC000019000910198FFF7EEFF0246009B93424F
:108BD00001D2022311E0019B9B884FF6FF72934262
:108BE00008D0019B1B88002B04D0019B9B68B3F12C
:108BF000FF3F01D1012300E00023184603B05DF8D8
:108C000004FB000000B583B00190019B002B13D042
:108C10000D4BDB681A46019B93420DD30A4B1B692F
:108C20001A46019B934207D80198FFF709FF0346B4
:108C3000002B01D0012300E0002303F00103DBB28D
:108C4000184603B05DF804FB5022002082B001906A
:108C5000019B002B04D0019B1B680B4A934201D05F
:108C600003230DE0019B04331B68084A934204D0A0
:108C7000074A934203D1012302E0002300E00323CB
:108C8000184602B0704700BFDEC0ADDEFE011EF127
:108C9000FF011EF184B00190019B1B68B3F1FF3FFF
:108CA00006D0019B1B680E4A934201D0002314E0BA
:108CB000012303930CE0039B9B00019A13441B6860
:108CC000B3F1FF3F01D0002307E0039B013303937F
:108CD000039BB3F5806FEED30123184604B07047B1
:108CE000DEC0ADDE82B003460A46ADF8063013465C
:108CF000ADF80430BDF80620134913469B00134419
:108D00009B000B4408331A88BDF804301344ADF8B7
:108D10000430BDF806200C4913469B0013449B0009
:108D20000B440A331A88BDF804301344ADF80430FC
:108D3000BDF80430B3F5806F94BF01230023DBB28C
:108D4000184602B0704700BF1426002084B001907E
:108D5000009148F2096303930023ADF80A3027E03D
:108D6000BDF80A20164913469B0013449B000B4490
:108D700004331B68009A9A4215D9BDF80A2010499D
:108D800013469B0013449B000B4404331B6803F5FC
:108D90008053009A9A4206D200230393019BBDF8A8
:108DA0000A201A8008E0BDF80A300133ADF80A3015
:108DB000BDF80A30012BD3D9039B184604B0704785
:108DC0001426002000B589B0039002910192039B04
:108DD00003F580530693039B08330393029B0222FF
:108DE0001A80039B079332E006990798FFF7E6FE87
:108DF00003468DF817309DF81730002B0AD1079BDA
:108E00009A68184B1B689A4213D9079B9B68154AAE
:108E100013600EE0019B002B02D0019B01221A700F
:108E20009DF81730022B04D1029B4FF480621A8008
:108E300014E0029B1A88079B5B8813449BB20333A0
:108E40009AB2029B1A800798FFF7ADFE0790069929
:108E50000798FFF791FE0346002BC5D109B05DF8D6
:108E600004FB00BF7425002082B001900091009B9C
:108E70009B7D022B09D9019B1A89009BDB88134437
:108E80009BB203339AB2019B1A81019B5A89009BC2
:108E9000DB88D31A9BB2033B9AB2019B5A8100BF75
:108EA00002B0704700B583B0074B1B68194600231A
:108EB00000930823054A064802F05CFD0346184665
:108EC00003B05DF804FB00BF3C260020A461040051
:108ED0005022002000B585B0039003990023009331
:108EE0000823044A044802F045FD0346184605B02D
:108EF0005DF804FBAC6104005022002000B585B091
:108F000003460091ADF8063000238DF80F30BDF810
:108F100006300333ADF80A30BDF80A3040F2FE32B5
:108F2000934202D948F208634BE00023ADF80C30BD
:108F30003BE0BDF80C20254913469B0013449B00E1
:108F40000B441B78002B2BD1BDF80A20BDF80C3048
:108F500011461846FFF7C6FE0346002B20D001231A
:108F60008DF80F30009BBDF80C201A80BDF80C2046
:108F7000164913469B0013449B000B440A3319887F
:108F8000BDF80C20BDF80A300B4498B20F491346C7
:108F90009B0013449B000B440A3302461A8008E0EE
:108FA000BDF80C300133ADF80C30BDF80C30012B9E
:108FB000BFD99DF80F30002B01D0002301E048F20B
:108FC0000663184605B05DF804FB00BF14260020B8
:108FD00082B003460A46ADF806301346ADF80430B9
:108FE000BDF804200D4913469B0013449B000B441D
:108FF0000A331A88BDF80630D31A9BB2BDF8042094
:10900000033B98B2054913469B0013449B000B4455
:109010000A3302461A8000BF02B0704714260020AF
:1090200008B50121024801F020FF0346184608BD9B
:109030007425002000B585B003460091ADF80630D8
:10904000BDF80620244913469B0013449B000B44A3
:1090500004331B6803F580530293009B1B68039342
:10906000039B002B04D00398FFF79DFD039026E09F
:10907000BDF80620184913469B0013449B000B447F
:1090800004331B680833039319E002990398FFF730
:1090900095FD0346022B10D0022B10DC002B02D0D2
:1090A000012B05D00BE0009B039A1A6001230EE010
:1090B0000398FFF778FD039001E0002307E0029991
:1090C0000398FFF759FD0346002BDED10023184615
:1090D00005B05DF804FB00BF1426002000B585B084
:1090E00001900091019B5B681846FFF78BFD0346DA
:1090F000002B19D0019B1A89244B1B899A4213D14A
:10910000019B1A68019B5B689B689A420CD1019B8A
:109110005B6819460098FFF719FE0346002B0CBF49
:1091200001230023DBB22CE0009B00221A8023E005
:109130000023029310E0029B0393039B9A68019B18
:109140001B689A4208D1029A019B5A600F4B1A89F8
:10915000019B1A81012314E0009B1B8802AA11467F
:109160001846FFF767FF0346002BE4D1009B1B88DE
:1091700001339AB2009B1A80009B1B88012BD7D920
:109180000023184605B05DF804FB00BF442600200C
:1091900000B587B00390029101920093324B1B7887
:1091A000DBB283F00103DBB2002B02D048F2016393
:1091B00055E0019B002B02D0009B002B49D148F2C7
:1091C00004634CE0009B9B881946284A0B469B0091
:1091D0000B449B0013441B78002B33D124E0009BED
:1091E0001B680593039B002B06D0059B9A88039B65
:1091F0001B889A4200D017E0029B002B06D0059BEB
:109200001A88029B1B889A4200D00DE0059B9A6841
:10921000019B1A60009B1A68019B5A60144B1A89C3
:10922000019B1A8100231AE0009B9B88009A11463B
:109230001846FFF7FFFE0346002BD0D1009B00220B
:109240001A6000E000BF009B9B8801339AB2009B2C
:109250009A80009B9B88012BB4D948F20963184679
:1092600007B05DF804FB00BF542500201426002041
:109270004426002000B587B0029101920093034676
:10928000ADF80E30BDF80E20324913469B00134452
:109290009B000B4404331B6808330593BDF80E2074
:1092A0002C4913469B0013449B000B4404331B685A
:1092B00003F58053049342E004990598FFF77EFC80
:1092C0000346022B25D0022B38DC002B16D0012BB5
:1092D00034D1019B1B8801339AB2019B1A80009BF9
:1092E0001A88059B5B8813449BB203339AB2009B98
:1092F0001A800598FFF757FC059020E0029B1B8819
:1093000001339AB2029B1A800598FFF74CFC059036
:1093100015E0019B1B8801339AB2019B1A80009BC8
:109320001A880499059BCB1A9B109BB213449AB2DE
:10933000009B1A80089B01221A7007E000BF049965
:109340000598FFF719FC0346002BB5D107B05DF86F
:1093500004FB00BF1426002000B585B00190084B27
:109360000199184601F0CCFB03901C2200210398C0
:1093700018F0D5FE039B184605B05DF804FB00BF4E
:109380000426002000B583B00190044B01991846D3
:1093900001F0CFFB00BF03B05DF804FB0426002002
:1093A00000B583B00190054B0199184601F0D5FB3B
:1093B0000346184603B05DF804FB00BF04260020F6
:1093C00000B583B00190044B0199184601F0DEFB13
:1093D00000BF03B05DF804FB0426002008B50A4B6B
:1093E0001B68002B04D109494FF424700AF07EFE5B
:1093F0000121054801F051FD0346002B14BF012354
:109400000023DBB2184608BD5C250020486104003B
:1094100000B587B0002305930023ADF81230032375
:10942000ADF8103000238DF80F300023ADF80C306C
:10943000F7E0BDF80C301A03824BDB68134402934B
:109440000298FFF703FC03468DF807309DF80730BC
:10945000032B08D0032B00F3DE80002B65D0012BFB
:1094600000F09880D7E00298FFF714FC0346002B29
:109470003BD0754B1B68002B29D0BDF812207349D7
:1094800013469B0013449B000B4402221A70BDF844
:1094900012206E4913469B0013449B000B44043377
:1094A000029A1A60BDF81220684913469B001344C3
:1094B0009B000B44083302221A80654ABDF8123023
:1094C0005380BDF812300133ADF8123008E05E4A27
:1094D000029B13605C4B02229A8001238DF80F30AF
:1094E000059B43F00103059396E0BDF81030013B66
:1094F000ADF81030BDF81220544913469B001344B8
:109500009B000B440433029A1A60BDF812204F49A5
:1095100013469B0013449B000B4403221A70BDF8B2
:1095200012300133ADF8123076E0BDF81220474911
:1095300013469B0013449B000B4400221A70BDF895
:109540001220424913469B0013449B000B440433F2
:10955000029A1A60BDF8122013469B0013449B0028
:1095600008333A4A9918BDF8122013469B00134459
:109570009B001033354A13441A460298FFF722FC29
:10958000059B43F002030593BDF812300133ADF89B
:10959000123041E09DF80F30002B29D0BDF8122089
:1095A0002A4913469B0013449B000B4402221A7065
:1095B000BDF81220244B1968244813469B0013441D
:1095C0009B00034404331960BDF812201F49134661
:1095D0009B0013449B000B44083302221A801C4A50
:1095E000BDF812305380BDF812300133ADF812309F
:1095F000154A029B1360002216490298FFF7E2FB0E
:10960000114B9B88022B01D1042300E00823059A0B
:109610001343059300E000BFBDF80C300133ADF8F3
:109620000C30BDF80C30022B7FF603AFBDF81030C4
:10963000012B01D800230593059BDBB2184607B028
:109640005DF804FB502200203C2600201426002058
:10965000442600204026002000B587B003900291E8
:10966000039B02229A750299039B1A1D0023009303
:109670000423074802F07EF90590059B002B01D1D9
:10968000002301E048F20D63184607B05DF804FBC3
:109690005022002000B587B003900291039B1B6904
:1096A000002B01D0032200E00122039B9A75029B4C
:1096B00008331946039B03F10C0200230093042393
:1096C000074802F057F90590059B002B01D10023B4
:1096D00001E048F20D63184607B05DF804FB00BFD7
:1096E0005022002000B587B003900291039B1B78A5
:1096F000032B01D1052200E00622039B9A75029BF1
:1097000004331946039B03F108020023009304234A
:10971000074802F02FF90590059B002B01D100238B
:1097200001E048F20D63184607B05DF804FB00BF86
:109730005022002000B587B003900B46ADF80A30E8
:1097400003990023009304230D4A0E4802F012F9F6
:109750000590059B002B02D048F20D630BE0BDF88D
:109760000A20094913469B0013449B000B44103305
:1097700001221A700023184607B05DF804FB00BFF1
:10978000B4610400502200201426002000B589B0E6
:10979000019002AB00221A605A609A60019BDB685C
:1097A00002930DF1160202AB11461846FFF796FC24
:1097B0000346002B12D0039B0693069B9A88019BBD
:1097C000DA80069B1A88019B1A81039BBDF816203C
:1097D00011461846FFF7AEFF079002E048F2096312
:1097E0000793079B184609B05DF804FB00B587B0E6
:1097F0000190019B981D02AA0D4B0021FFF7C8FCA8
:109800000590059B002B08D1039B094A92881146BD
:109810001846FFF78FFF059004E008220021044856
:1098200018F07DFC059B184607B05DF804FB00BFEF
:109830005426002000B587B003900291039B0122BB
:109840009A75029B0C331846039B1A69039BDB88AD
:109850009B00002100910146074802F08BF805901B
:10986000059B002B01D1002301E048F20D6318464F
:1098700007B05DF804FB00BF5022002082B0184BF7
:109880001B8901339AB2164B1A81154B00225A805C
:10989000134B00221A730023ADF8063018E0BDF810
:1098A0000620104913469B0013449B000B441A7872
:1098B000BDF80630002A0CBF01220022D1B2084AAE
:1098C00013440A469A72BDF806300133ADF80630EB
:1098D000BDF80630012BE2D900BF00BF02B07047CF
:1098E000442600201426002084B0019000238DF827
:1098F0000F300023ADF80C3031E0BDF80C301C4ABD
:1099000013449B7A002B25D0BDF80C30184A134421
:1099100000229A72BDF80C20164913469B0013448E
:109920009B000B440C331B68002B13D1BDF80C209B
:10993000104913469B0013449B000B4410331B78C3
:10994000002B07D0019BBDF80C201A8001238DF855
:109950000F3008E0BDF80C300133ADF80C30BDF825
:109960000C30012BC9D99DF80F30184604B0704750
:10997000442600201426002008B5084B05221A7042
:10998000074B02229A80064B1B68194600230122CE
:10999000044802F0D1F80346184608BD44260020CA
:1099A0003C2600205022002000B583B0164B5B8877
:1099B000ADF80230BDF80220144913469B00134451
:1099C0009B000B440C331B68002B14D10E4B04225C
:1099D0001A70BDF802200D4913469B0013449B00EA
:1099E0000B4404331B68194600230122084802F087
:1099F000A3F8019002E0FFF7BFFF0190019B18461A
:109A000003B05DF804FB00BF4426002014260020AC
:109A10005022002000B587B0104B5B680593104BB7
:109A20001A680F4B9B889B0013440493059B5B882B
:109A30000333ADF80E30094B03221A700499074B1B
:109A40005A68BDF80E309B0000200090054801F0D8
:109A500091FF0346184607B05DF804FB442600203A
:109A60003C2600205022002000B583B00A4B5B88C2
:109A70000A491846FFF7DEFA0346002B03D0FFF72A
:109A8000C9FF019002E0FFF78FFF0190019B18468C
:109A900003B05DF804FB00BF4426002048260020E8
:109AA00008B50A4B06221A70084B5B881946084A0B
:109AB0000B469B000B449B00134404331B68184661
:109AC000FFF708FA0346184608BD00BF44260020E9
:109AD0001426002008B5054B07221A70034B0022FC
:109AE0005A60FFF7DFF90346184608BD44260020F8
:109AF00008B50D48FFF7F8FE034683F00103DBB21B
:109B0000002B0BD0094B00221A70084B00225A8000
:109B1000064B00225A6041F61D5302E0FFF7A4FFF6
:109B20000346184608BD00BF4626002044260020F4
:109B300082B0094B5B680193019B5B880333ADF8EE
:109B40000230064B9A88BDF8023013449AB2034B98
:109B50009A8000BF02B07047442600203C260020B7
:109B600082B01E4B1B6801931D4B5B8819461D4A32
:109B70000B469B000B449B00134404331B68174A9D
:109B80001360174B5B881946164A0B469B000B4423
:109B90009B0013440433019A1A60114B5B881946E9
:109BA0000E4B98880F4A0B469B000B449B001344B6
:109BB000083302461A80094B02229A80084B5B88C0
:109BC0001946084A0B469B000B449B001344103374
:109BD00000221A7000BF02B0704700BF3C26002070
:109BE000442600201426002008B51A4B1B78072BAA
:109BF0002CD801A252F823F0199C02004D9C0200BF
:109C00004D9C0200259C0200319C02003D9C0200FC
:109C10003D9C0200459C0200FFF730FE0D4B0122E7
:109C20001A7014E0FFF784FF0A4B02221A700EE04C
:109C3000FFF796FF074B06221A7008E0054B072234
:109C40001A7004E0034B01221A7000E000BF00BF4D
:109C500008BD00BF4426002000B587B001900091E8
:109C600048F20E630593019B002B05D0624B002246
:109C70005A604FF40643BAE0009B1B79032B00F2B5
:109C8000A98001A252F823F0999C0200A79C02002F
:109C9000359D0200559D0200009B01221A71FFF7BD
:109CA00001F9059099E000238DF813300023ADF8F9
:109CB00010302BE0BDF81020504913469B00134490
:109CC0009B000B441B78022B1BD1BDF810204B4985
:109CD00013469B0013449B000B4400221A7001237F
:109CE0008DF81330BDF81020444913469B001344EF
:109CF0009B000B4404331B681846FFF7EBF80590F4
:109D000008E0BDF810300133ADF81030BDF8103068
:109D1000012BCFD99DF8133083F00103DBB2002B68
:109D20005AD0354B01221A70334B00225A6041F64B
:109D30001D535CE0009B00221A71314B02229A8075
:109D40002F4B1B681946002301222E4801F0F4FE18
:109D5000059042E0009B00221A712B4B5B88ADF806
:109D60000E30274B1B680293BDF80E202349134683
:109D70009B0013449B000B4404331B68204A136070
:109D8000BDF80E201D4913469B0013449B000B4455
:109D90000433029A1A60BDF80E20194B98881749AF
:109DA00013469B0013449B000B44083302461A8061
:109DB000134B02229A80BDF80E20104913469B00D7
:109DC00013449B000B4400221A700298FFF782F89C
:109DD000059002E000BF00E000BF059B002B05D00E
:109DE000054B00225A6048F20D6300E0002318463C
:109DF00007B05DF804FB00BF5425002014260020A6
:109E00003C260020502200204426002000B587B0C8
:109E100001900091009B9B8A1A4613469B001344B5
:109E20009B003B4A13440493019B002B06D00099EE
:109E30000498FFF719F84FF4064364E0049B5A684E
:109E4000049B1B899B0013440393009B9B7D062B63
:109E50004DD801A252F823F09D9E0200C19E02003F
:109E6000A99E0200B59E0200759E0200CD9E0200D2
:109E7000E79E0200274B00225A60009B9B69254AFF
:109E8000136025492348FFF729F9034683F00103AE
:109E9000DBB2002B02D048F2096334E0039900984A
:109EA000FFF7DAFB059026E003990098FFF7F2FB35
:109EB000059020E003990098FFF7BCFC05901AE09C
:109EC00003990098FFF70EFC059014E0009B062212
:109ED0009A75104B5B68104A128811461846FFF7B6
:109EE00029FC059007E041F61D53059303E048F275
:109EF0000E63059300BF059B002B03D000990498C7
:109F0000FEF7B2FF059B184607B05DF804FB00BFE3
:109F1000142600205C2600206826002000B585B0AD
:109F200001900091019B002B02D04FF4064329E0E1
:109F3000009B1B79022B1BD0022B1DDC002B02D0B7
:109F4000012B08D018E0009B02221A710098FFF73D
:109F50001DFC039015E00098FFF748FC0390039B5D
:109F600048F2096293420BD141F61D53039307E077
:109F700041F61D53039304E048F20E63039300E09F
:109F800000BF039B184605B05DF804FB00B585B023
:109F90000190019B002B02D04FF406433DE0214B82
:109FA0001B7B002B03D01F4B00221A7301E0FFF72D
:109FB0001BFE1C4B1B78013B062B29D801A252F833
:109FC00023F000BFE19F0200E99F0200F19F020021
:109FD000F99F020011A0020001A0020009A00200E6
:109FE000FFF786FD039017E0FFF73EFD039013E0B7
:109FF000FFF710FD03900FE0FFF7D6FC03900BE096
:10A00000FFF74EFD039007E0FFF764FD039003E0C8
:10A0100048F20E63039300BF039B184605B05DF83A
:10A0200004FB00BF4426002000B589B00190404BDE
:10A030001B68002B05D13F48FFF7B2F903463C4AA5
:10A0400013603B4B1B68002B04D13B494FF4B460B9
:10A050000AF04CF8364B1B681B78013B052B2CD8BB
:10A0600001A252F823F000BF81A0020091A00200DB
:10A0700091A00200A1A00200A1A00200B1A00200D4
:10A080002B4B1B6819460198FFF7E6FD019018E07D
:10A09000274B1B6819460198FFF7B8FE019010E0A6
:10A0A000234B1B6819460198FFF738FF019008E021
:10A0B0000198FFF76BFF019003E048F20E630193F4
:10A0C00000BF019B002B2BD003AB00221A605A600B
:10A0D0009A60DA601A61019B41F61D52934201D0E9
:10A0E000019B00E000230493114B1B6803AA114657
:10A0F0001846FEF7D3FC03AB1846FEF7AFFC0C4B3B
:10A1000000221A60002301930A48FFF759F9FFF76C
:10A1100065F9034683F00103DBB2002B02D186E729
:10A1200000BF00E000BF00BF09B05DF804FB00BF46
:10A130006C260020702600204861040008B501212B
:10A14000054800F07AFE0346002B02D10020FFF7FD
:10A150006BFF00BF08BD00BF5C25002000B583B0C9
:10A160000190019B5B681846FFF75EFF00BF03B0DC
:10A170005DF804FB00B58BB00390029101928DF85D
:10A1800003300023ADF824300023ADF82630534BC4
:10A190001B78DBB283F00103DBB2002B02D048F264
:10A1A000016397E0029B002B02D148F2046391E027
:10A1B000029B1B884FF6FF72934203D0029B5B8881
:10A1C000002B02D148F2036384E0029B5B681846CF
:10A1D000FEF736FC034683F00103DBB2002B02D00E
:10A1E00048F2026376E0019B002B11D1029B9B6831
:10A1F000ADF826300DF11A02BDF82630114618468A
:10A20000FEF77CFE0890089B002B09D0089B61E0BC
:10A21000019B1B88ADF81A30019B5B88ADF8263096
:10A2200005AB1846FFF798F80790079B002B0AD15B
:10A23000BDF81A20BDF8263011461846FEF7C8FEB4
:10A2400048F2076346E0079B9DF803201A70079BBE
:10A2500000229A75BDF81A20079B9A82029B5A68C1
:10A26000079B1A61FEF7DCFE0246079BDA60029B41
:10A270001A88079B1A81029B5A88079B9A80079B22
:10A28000BDF82620DA809DF80330032B06D1079B0A
:10A2900004229A75039B1A68079B9A61079BBDF875
:10A2A00024205A8105AB1846FFF76CF8039B002B5E
:10A2B0000DD0039B00225A60079BDA68039B1A604B
:10A2C000039B00229A72064B1A89039B1A81FFF79F
:10A2D00035FF002318460BB05DF804FB5425002021
:10A2E0004426002000B585B001900C4B1B68042B60
:10A2F00003D148F20B6303930BE0084B1B6808493A
:10A30000019A41F823200121044800F0AEFD00230A
:10A310000393039B184605B05DF804FB60250020FD
:10A320006425002084B040F6F8731B68B3F1FF3F4A
:10A3300002D10F4B1B6802E040F6F8731B680393D1
:10A340004FF080531B6902934FF080535B69019378
:10A35000039BB3F1FF3F04D1019B029A02FB03F37D
:10A3600000E0039B0093009B184604B0704700BFB9
:10A370001410001000B583B04FF440530193FFF761
:10A38000D1FF0346054A1361044B1A69019BD31A96
:10A39000024AD36000BF03B05DF804FB50220020E6
:10A3A00008B5FFF7E7FF00220349044801F09AFAD5
:10A3B0000346184608BD00BFF86404005022002080
:10A3C00008B504481C238C22034900F052FB00BF4F
:10A3D00008BD00BF042600207825002000B58BB002
:10A3E00002AB00221A605A609A60DA601A61454B2B
:10A3F0001B78DBB2002B05D002AB1846FEF72EFB14
:10A4000000237BE0404800F060FD0346002B01D0B4
:10A41000002373E0FFF7C4FF0990099B002B01D0D4
:10A42000099B6BE0FFF7CCFFFEF7F2FF03468DF8C8
:10A4300023309DF82330062B0ED0062B18DC002B82
:10A4400001D0022B14D12F4B00221A702D4B002269
:10A450005A6048F20A6351E02A4B01221A70294BD4
:10A4600000225A6002AB1846FEF7F8FA002345E0D6
:10A4700000BF01AB1846FEF76FFF0790079B002B4C
:10A4800002D148F2076339E0079B01221A709DF858
:10A490002330013B0A2B29D801A252F823F000BF38
:10A4A000CDA40200EDA40200CDA40200EDA40200A0
:10A4B000E5A40200EDA40200E5A40200EDA4020060
:10A4C000D5A40200DDA40200D5A40200079B00224F
:10A4D0001A710CE0079B03221A7108E0079B022205
:10A4E0001A7104E0079B01221A7100E000BF01AB62
:10A4F0001846FEF747FFFFF721FE002318460BB072
:10A500005DF804FB542500205825002000B585B0D7
:10A5100001900091019B002B02D0009B002B02D1E7
:10A5200048F204632AE00DF10A0319460198FEF788
:10A53000D5FD0346002B1FD0019B5B680393BDF83C
:10A540000A301A4613469B0013449B0008330D4AF9
:10A55000134404330121184600F087FC009B039A42
:10A560001A60019B5B6803F10C02009B5A60019B1F
:10A5700001229A72002301E048F20963184605B0EF
:10A580005DF804FB1426002000B585B00190019B06
:10A59000002B02D148F204633BE00DF10A03194697
:10A5A0000198FEF79BFD0346002B2ED0BDF80A3024
:10A5B00019461A4A0B469B000B449B0013440C336C
:10A5C0001B68002B1DD0019B9B7A002B19D0BDF876
:10A5D0000A301A46114913469B0013449B000B4452
:10A5E0000C331B68591E0D4813469B0013449B00F7
:10A5F00003440C331960019B00229A7200230393D9
:10A6000006E048F20563039302E048F2096303930E
:10A61000039B184605B05DF804FB00BF142600201C
:10A6200000B583B0019000910223002200990198A7
:10A63000FFF7A0FD0346184603B05DF804FB00B524
:10A6400083B001900091019B002B02D148F204637A
:10A6500006E00323002200990198FFF78BFD0346D3
:10A66000184603B05DF804FB00B585B00346ADF8AD
:10A6700006301A4B1B78DBB283F00103DBB2002BF0
:10A6800002D048F2016324E0BDF806304FF6FF72B5
:10A69000934202D148F203631BE002AB1846FEF777
:10A6A0005BFE0390039B002B02D148F2076310E08E
:10A6B000039B05221A70039B01221A71039BBDF8AC
:10A6C0000620DA8002AB1846FEF75CFEFFF736FD87
:10A6D0000023184605B05DF804FB00BF5425002098
:10A6E00000B583B0154B1B78DBB283F00103DBB2FE
:10A6F000002B02D048F201631BE06B461846FEF7C0
:10A700002BFE0190019B002B02D148F2076310E061
:10A71000019B06221A706B461846FEF733FE084B63
:10A720001B78002B02D0064B01221A73FFF706FD9F
:10A730000023184603B05DF804FB00BF5425002039
:10A740004426002000B585B0029201930346ADF87F
:10A750000E300B46ADF80C3003A90DF10E00019B35
:10A76000029AFEF715FD0346184605B05DF804FB96
:10A7700000B585B0034602910192ADF80E300DF19F
:10A780000E01019B029A0020FEF702FD03461846C7
:10A7900005B05DF804FB00B585B003460291019257
:10A7A000ADF80E300DF10E00019B029A0021FEF76C
:10A7B000EFFC0346184605B05DF804FB82B001903B
:10A7C0000091019B002B02D0009B002B02D148F28C
:10A7D000046304E0019B1A68009B1A60002318467A
:10A7E00002B0704710B586B003904FF48063ADF8A7
:10A7F00014300023ADF812304F4B1B78DBB283F0DE
:10A800000103DBB2002B02D048F2016391E0039B0D
:10A81000002B02D148F204638BE01222002103983E
:10A8200017F07DFC039B03221A800023ADF816303D
:10A830007AE0BDF81620414913469B0013449B0063
:10A840000B4408331988BDF816203C4813469B007A
:10A8500013449B0003440A331B880B44ADF81030AB
:10A86000BDF81620354913469B0013449B000B444A
:10A8700004331B681846FEF7E9F90346032B05D19C
:10A88000039B1B88013B9AB2039B1A80BDF81620DC
:10A890002A4913469B0013449B000B440C33196850
:10A8A000039B5A888BB213449AB2039B5A80039B32
:10A8B0001989BDF81620214813469B0013449B00BC
:10A8C00003440A331B880B449AB2039B1A81039BEF
:10A8D0005A89BDF8103013449AB2039B5A81BDF8CF
:10A8E0001420BDF81030D31AADF81230039B9B89A9
:10A8F000BDF812209A4203D9039BBDF812209A8119
:10A90000039B191D039B9A1D039B03F10E04039BDC
:10A910001033BDF8160000932346FEF7ABFCBDF8DC
:10A9200016300133ADF81630BDF81630012B80D942
:10A930000023184606B010BD542500201426002020
:10A9400086B001900091019B53E8011F8AB2D8891B
:10A9500002449889824228BF121A1889824202BF93
:10A96000BFF32F8F002307E0C2EA010243E8012072
:10A970000028E9D14FF001038DF80F3005900291C6
:10A980000492029A009B1A609DF80F30DBB21846C1
:10A9900006B0704784B00190019951E8013FC3EAC5
:10A9A000034341E80132002AF7D10392029300BF2A
:10A9B00004B0704786B001900091019B53E8021FDC
:10A9C0001FFAA1F2D888824202BFBFF32F8F002363
:10A9D0000DE0D88902449889824228BF121AC1EA40
:10A9E000024243E802200028E8D14FF001038DF82D
:10A9F0000F30059002910492029A009B1A609DF814
:10AA00000F30DBB2184606B0704784B00190019950
:10AA100051E8023FC3EA234341E80232002AF7D15A
:10AA20000392029300BF04B0704786B00190019B6F
:10AA300053E8021FDA88B1EB314F4FF0000017BF27
:10AA400089B242EA024241EA024204E05968B1EBAB
:10AA5000314F08BF012043E802210029E8D18DF8D9
:10AA60000F00059104929DF80F30DBB2184606B036
:10AA7000704784B00390029111461A460B46ADF818
:10AA800006301346ADF80430029B002B01D10E2393
:10AA90001FE0BDF80630BDF80420B3FBF2F101FB66
:10AAA00002F29B1A9BB2002B01D0092311E0039BF9
:10AAB000029A1A60039B00225A60039B00229A604C
:10AAC000039BBDF806209A81039BBDF80420DA8120
:10AAD0000023184604B0704700B585B00190019876
:10AAE000FFF7A3FF03468DF80F309DF80F30002BC2
:10AAF00001D0002300E01123184605B05DF804FBE7
:10AB000000B585B001900091009B19460198FFF7B0
:10AB100017FF0346002B07D0019B1B68009A128881
:10AB200013440393039B00E00023184605B05DF82F
:10AB300004FB00B583B001900091009B1A88009B34
:10AB40005B889A4204D10198FFF724FF012300E0BB
:10AB50000023184603B05DF804FB00B585B00190F2
:10AB60000091009B19460198FFF724FF0346002B34
:10AB700007D0019B1B68009A528813440393039BE0
:10AB800000E00023184605B05DF804FB00B583B073
:10AB900001900091009B1A88009B5B889A4204D127
:10ABA0000198FFF732FF012300E00023184603B0AD
:10ABB0005DF804FB00B585B001900091009B5B0936
:10ABC0009B00019A1A44009B03F01F03012101FA24
:10ABD00003F31946104600F0E8F8039000BF05B0F3
:10ABE0005DF804FB00B583B001900091009B5B0908
:10ABF0009B00019A1A44009B03F01F03012101FAF4
:10AC000003F31946104600F0B8F80246009B03F023
:10AC10001F0322FA03F303F00103002B14BF0123E7
:10AC20000023DBB2184603B05DF804FB00B585B025
:10AC300001900091009B5B099B00019A1A44009BC4
:10AC400003F01F03012101FA03F3DB431946104609
:10AC500000F0DBF8039000BF05B05DF804FB82B0A4
:10AC600001900091009B5B099B00019A13441A68B4
:10AC7000009B03F01F0322FA03F303F00103002BF0
:10AC800014BF01230023DBB2184602B0704700B5A1
:10AC90008DB00190009100230B934BE00B9B9B0028
:10ACA000019A13441B68DB430793079B93FAA3F3B2
:10ACB0000693069B0893089B002B01D1202303E0F9
:10ACC000089BB3FA83F3DBB20A932BE00B9B5B0187
:10ACD0000A9A13440993099A009B9A4226D2099929
:10ACE0000198FFF77FFF034683F00103DBB2002BDF
:10ACF00001D0099B26E00B9B9B00019A13441B6823
:10AD0000DB430493049B93FAA3F30393039B059300
:10AD1000059B002B01D1202303E0059BB3FA83F3AD
:10AD2000DBB20A930A9B1F2BD0D900E000BF0B9B1C
:10AD300001330B93009B013B5B0901330B9A9A4251
:10AD4000ACD3009B18460DB05DF804FB10B487B07F
:10AD500001900091019B009A53E8004F104643E890
:10AD6000000191F0000FF7D1059404900391059B29
:10AD7000184607B05DF8044B704710B487B00190D7
:10AD80000091019B009A53E8004F44EA020043E817
:10AD9000000191F0000FF6D1059404900391059BFA
:10ADA000184607B05DF8044B704710B487B00190A7
:10ADB0000091019B009A53E8004F44EA020043E8E7
:10ADC000000191F0000FF6D1059404900391049BCB
:10ADD000184607B05DF8044B704710B487B0019077
:10ADE0000091019B009A53E8004F04EA020043E8F7
:10ADF000000191F0000FF6D1059404900391059B9A
:10AE0000184607B05DF8044B704710B487B0019046
:10AE10000091019B009A53E8004F04EA020043E8C6
:10AE2000000191F0000FF6D1059404900391049B6A
:10AE3000184607B05DF8044B704710B487B0019016
:10AE40000091019B009A53E8004F04EB020043E895
:10AE5000000191F0000FF6D1059404900391059B39
:10AE6000184607B05DF8044B704710B487B00190E6
:10AE70000091019B009A53E8004F04EB020043E865
:10AE8000000191F0000FF6D1059404900391049B0A
:10AE9000184607B05DF8044B704710B487B00190B6
:10AEA0000091019B009A53E8004FA4EB020043E895
:10AEB000000191F0000FF6D1059404900391049BDA
:10AEC000184607B05DF8044B704700B583B0019099
:10AED00001210198FFF751FF0346184603B05DF8C2
:10AEE00004FB00B583B0019001210198FFF75DFFDD
:10AEF0000346184603B05DF804FB00B583B001902B
:10AF000000210198FFF769FF0346184603B05DF87A
:10AF100004FB00B583B0019000210198FFF775FF95
:10AF20000346184603B05DF804FB000000B583B08B
:10AF300001900B468DF80330019B002B03D108498B
:10AF4000E82009F0D3F8019BDA689DF803300199F5
:10AF5000098A01FB03F31344184603B05DF804FBB0
:10AF6000C461040000B583B001900091019B002BE7
:10AF700003D10849F52009F0B9F8009B019AD2687D
:10AF80009B1A019A128AB3FBF2F3DBB2184603B0A4
:10AF90005DF804FBC461040000B585B00190019B1D
:10AFA000002B01D10E234CE0019B1B68002B03D129
:10AFB0002649FF2009F09AF8019B5B68002B04D119
:10AFC00022494FF4807009F091F8019B9B68002B97
:10AFD00004D11E4940F2011009F088F8019BDB689A
:10AFE000002B04D119494FF4817009F07FF8019BBF
:10AFF0001B8A002B04D1154940F2031009F076F8A2
:10B00000019B9A68019B5B68D31A8DF80F30019BF6
:10B010001B68019A52681A6007E0019B1A6813685E
:10B02000591C11609DF80F201A709DF80F305A1EA0
:10B030008DF80F20002BF0D1019B1B6800221A71A4
:10B040000023184605B05DF804FB00BFC46104008E
:10B0500000B585B00190019B002B04D11F494FF42E
:10B06000927009F043F80023039300238DF80A300F
:10B070000DF10A031846FDF7A9F8019B1B681A6831
:10B08000019B5B689A421FD9019B1B681A68013AB1
:10B090001A601B681B7819460198FFF747FF039059
:10B0A000019B9A68019B1B681B68D31A8DF80B30B3
:10B0B000019B1B681B799DF80B209A4204D9019BC8
:10B0C0001B689DF80B201A719DF80A301846FDF791
:10B0D00093F8039B184605B05DF804FBC4610400B7
:10B0E00010B584B001900091019B002B04D115494B
:10B0F00040F2471008F0FAFF009B002B04D11149E1
:10B100004FF4A47008F0F2FF009B039300238DF826
:10B110000B300DF10B031846FDF758F8019B1B6827
:10B120001C68621C1A6003990198FFF71BFF034615
:10B1300023709DF80B301846FDF75EF800BF04B091
:10B1400010BD00BFC461040000B583B00190019B35
:10B15000002B03D10C49312008F0C8FF019B9B68EC
:10B16000002B0CD0019B5B69019A1069019A116850
:10B17000019A92689847019B00229A6000E000BF04
:10B1800003B05DF804FB00BF2C6204000EB400B5F0
:10B1900084B00190019B002B03D11849422008F094
:10B1A000A5FF019B5B69002B03D11449432008F0E4
:10B1B0009DFF019B1B68002B03D11049442008F020
:10B1C00095FF019B5B68002B03D10C49452008F0DB
:10B1D0008DFF059B002B0AD00023039306AB03933E
:10B1E00003AB1A460599019800F0B8F900E000BFDA
:10B1F00004B05DF804EB03B0704700BF2C6204009C
:10B2000000B583B001900B468DF803309DF80330F4
:10B210000A2B03D10D210198FFF7F2FF019B1A6859
:10B22000019B9B68581C0199886013449DF803207A
:10B230001A70019B9A68019B5B689A4202D301983D
:10B24000FFF782FF00BF03B05DF804FB00B587B0D5
:10B25000039002910192009300230593009B03F059
:10B260000103002B24D00BE0029B01330293059BCA
:10B27000013305939DF8133019460398FFF7C0FF7B
:10B28000029B1B788DF813309DF81330002BEBD107
:10B2900006E0019B013B019320210398FFF7B0FFDB
:10B2A000019A059B9A422ED9019B002BF1D12AE0ED
:10B2B000029B002B0BD0029816F064FF059006E06D
:10B2C000019B013B019320210398FFF799FF019A0D
:10B2D000059B9A420FD9019B002BF1D10BE0029BF9
:10B2E00001330293059B013305939DF813301946F2
:10B2F0000398FFF785FF029B1B788DF813309DF8AC
:10B300001330002BEBD100BF07B05DF804FB000049
:10B3100000B589B00390029101920093029B0793BC
:10B320000123069307E0079A019BB2FBF3F307930F
:10B33000069B01330693079A019B9A42F3D2009A27
:10B34000069B9A4201D9009B06930B9B03F00103D5
:10B35000002B22D10A9B002B1FD00B9B03F0020372
:10B36000002B06D0009B002B03D130238DF8173023
:10B3700002E020238DF8173008E00A9B013B0A9376
:10B380009DF8173019460398FFF73AFF0A9B002BE8
:10B3900003D0069A0A9B9A42EFD301230793009B9E
:10B3A000012B03D9009B013B009309E0029A079B04
:10B3B000B2FBF3F30493049A019B9A4200D205E096
:10B3C000079B019A02FB03F30793E8E7029A079BA6
:10B3D000B2FBF3F30493049B079A02FB03F3029A74
:10B3E000D31A0293154A049B13441B7819460398F9
:10B3F000FFF706FF079A019BB2FBF3F30793079B46
:10B40000002BE3D10B9B03F00103002B11D00A9B0F
:10B41000002B0ED006E00A9B013B0A9320210398E3
:10B42000FFF7EEFE0A9B002B03D0069A0A9B9A4276
:10B43000F1D300BF09B05DF804FB00BFEC6204006B
:10B4400000B589B00590049103920293049B002BF0
:10B45000B8BF5B4206930123079307E0039B069A5C
:10B4600092FBF3F30693079B01330793039B069A22
:10B470009A42F3DA029A079B9A4201D9029B0793F8
:10B480000A9B002B0AD0049B002B04DB0B9B03F0D0
:10B490000403002B02D00A9B013B0A930B9B03F091
:10B4A0000203002B02D0029B002B16D00B9B03F053
:10B4B0000103002B11D10A9B002B0ED006E00A9B42
:10B4C000013B0A9320210598FFF79AFE0A9B002B67
:10B4D00003D0079A0A9B9A42F1D3049B002B07DA08
:10B4E000049B5B4204932D210598FFF789FE08E039
:10B4F0000B9B03F00403002B03D02B210598FFF7CF
:10B500007FFE0B9B03F00203002B19D00B9B03F073
:10B510000103002B14D1029B002B11D10A9B002B9D
:10B520000ED006E00A9B013B0A9330210598FFF7F5
:10B5300067FE0A9B002B03D0079A0A9B9A42F1D31D
:10B5400004990B9B01930A9B0093029B039A059815
:10B55000FFF7DEFE00BF09B05DF804FB00B58FB059
:10B56000059004910392059B002B04D1AD4940F254
:10B57000522008F0BBFD059B5B69002B04D1A94953
:10B580004FF4157008F0B2FD059B1B68002B04D129
:10B59000A44940F2552008F0A9FD059B5B68002BEB
:10B5A00004D1A04940F2562008F0A0FD049B002BD6
:10B5B00000F09381049B1B788DF83730049B013396
:10B5C00004939DF83730002B00F07E819DF83730D2
:10B5D000252B40F06D8100230A9301230C93049BDB
:10B5E0001B788DF837309DF83730302B0DD0302B4D
:10B5F0001BDC2B2B11D02D2B17D10A9B43F0010301
:10B600000A93049B0133049312E00A9B43F0020364
:10B610000A93049B013304930AE00A9B43F004035A
:10B620000A93049B0133049302E000230C9300BFB0
:10B630000C9B002BD3D1002309939DF837302A2B84
:10B640000CD1039B1B68191D039A11601B68099A92
:10B6500013440993049B013304931AE0049B1B7861
:10B660008DF837309DF837302F2B12D99DF83730B1
:10B67000392B0ED8049B01330493099A13469B007F
:10B6800013445B001A469DF837301344303B09934E
:10B69000D3E700230B93049B1B788DF837309DF87C
:10B6A00037302E2B1DD1049B01330493049B1B7850
:10B6B0008DF837309DF837302F2B12D99DF8373061
:10B6C000392B0ED8049B013304930B9A13469B002D
:10B6D00013445B001A469DF837301344303B0B93FC
:10B6E000E4E7049B1B788DF837309DF837306C2BDE
:10B6F00003D09DF83730682B07D1049B01330493A6
:10B70000049B1B788DF83730EFE79DF83730252BF9
:10B7100000F0C480252BC0F2C680782B00F3C380D4
:10B72000582BC0F2C080583B202B00F2BC8001A2F5
:10B7300052F823F029B80200A7B80200A7B8020007
:10B74000A7B80200A7B80200A7B80200A7B8020075
:10B75000A7B80200A7B80200A7B80200A7B8020065
:10B76000B9B70200DBB70200A7B80200A7B8020011
:10B77000A7B80200A7B80200DBB70200A7B8020012
:10B78000A7B80200A7B80200A7B80200A7B8020035
:10B79000A7B8020069B80200A7B80200A7B8020063
:10B7A0004DB80200A7B80200FFB70200A7B8020018
:10B7B000A7B8020029B80200039B1B68191D039A51
:10B7C00011601B680C930C9B8DF81F309DF81F3087
:10B7D00019460598FFF714FD66E0039B1B68191DC9
:10B7E000039A11601B680C930A9B0193099B0093B9
:10B7F0000B9B0A220C990598FFF722FE54E0039B4D
:10B800001B68191D039A11601B680C930C990A9B05
:10B810000193099B00930B9B0A220598FFF778FD83
:10B8200042E000BF88620400039B1B68191D039A55
:10B8300011601B680C930C990A9B0193099B009360
:10B840000B9B10220598FFF763FD2DE0039B1B68FF
:10B85000191D039A11601B6808930A9B099A08999D
:10B860000598FFF7F3FC1FE0039B1B68191D039A63
:10B8700011601B680C9330210598FFF7C1FC7821FB
:10B880000598FFF7BDFC0C99002301930823009352
:10B89000082310220598FFF73BFD05E025210598B8
:10B8A000FFF7AEFC00E000BF049B0133049305E00A
:10B8B0009DF8373019460598FFF7A2FC049B1B78CA
:10B8C000002B7FF477AE00E000BF059B1B7B002BB5
:10B8D00004D00598FFF738FC00E000BF0FB05DF81A
:10B8E00004FB00BF00B587B0059004910392059B4F
:10B8F000002B10D1194A1A4BD31ADB081B0443F052
:10B900000100184A18490E2300930B46174905F009
:10B9100006FF0E231DE0049B002B10D10F4A104B95
:10B92000D31ADB081B0443F00100114A0E490E2311
:10B9300000930B460D4905F0F2FE0E2309E0059B2E
:10B94000049A1A60059B1B681B6803990598984721
:10B950000346184607B05DF804FB00BF145D040001
:10B960009C5C04000C630400B064040014630400D5
:10B970004063040010B586B00590049103920293D1
:10B98000059B002B10D1604A604BD31ADB081B04C7
:10B9900043F001005E4A5F490E2300930B465E4967
:10B9A00005F0BDFE0E23ABE0039B002B10D1564AE1
:10B9B000564BD31ADB081B0443F00100574A554984
:10B9C0000E2300930B46544905F0A9FE0E2397E081
:10B9D000059B1B68002B10D14B4A4C4BD31ADB083C
:10B9E0001B0443F001004E4A4A49082300930B46CA
:10B9F000494905F094FE082382E0029B002B10D1F8
:10BA0000414A424BD31ADB081B0443F00100454A6C
:10BA10004049092300930B463F4905F080FE092366
:10BA20006EE0059B5B685A68029BB3FBF2F101FB79
:10BA300002F29B1A002B10D0334A344BD31ADB0886
:10BA40001B0443F00100384A3249092300930B4696
:10BA5000314905F064FE092352E0049800F01EF914
:10BA60000346002B10D1284A284BD31ADB081B04AD
:10BA700043F001002D4A2749102300930B46264925
:10BA800005F04DFE10233BE0039B184600F006F93D
:10BA90000346002B10D11C4A1C4BD31ADB081B0495
:10BAA00043F00100224A1B49102300930B461A4918
:10BAB00005F035FE102323E0029A0499059800F062
:10BAC000D3F80346002B10D10F4A104BD31ADB08D2
:10BAD0001B0443F00100174A0E49102300930B4644
